:100000000C947A010C94C1010C94C1010C94C101AF
:100010000C94C1010C94C1010C94C1010C94C10158
:100020000C94C1010C94C1010C94A91C0C947D1D6D
:100030000C94ED170C94C1010C94C1010C94C101F6
:100040000C94C1010C94C1010C94C1010C94C10128
:100050000C94C1010C9444180C94C1010C94C1017E
:100060000C94C1010C94C1010C94C1010C94C10108
:100070000C94C1010C94C1010C94C1010C94C101F8
:100080000C94C1010C94C1010C94C1010C94C101E8
:100090000C94C1010C94C1010C94C1010C94C101D8
:1000A0000C94C1010C94C1010C94C10129001E00E3
:1000B0001F0020002100220023002400250026002C
:1000C00027002D002E0000002A002B000000140045
:1000D0001A000800150017001C0018000C00120080
:1000E00013002F0030003200390000000400160019
:1000F000070009000A000B000D000E000F0033007E
:10010000340028000000E10064001D001B00060010
:1001100019000500110010003600370038005200A9
:1001200052004C00E000E3000000E200000000008C
:100130002C000000000000000153E60050005100B8
:100140004F0029003A003B003C003D003E003F00CC
:1001500040004100420043004400450000004C00C4
:1001600001000000C55CC45CC65CC75CC85CC95CBF
:10017000CA5CCB5CBD00BE000000000000000100B6
:100180000000C35C51004F000000000000000000B0
:1001900000000000000000002800000001003602FE
:1001A0003702C05CBF5CBE5CC15CC25C000000008A
:1001B00000000000A900A900A80000000000000045
:1001C00000000000000000000000000000000153DB
:1001D00000000000AA0000000A0344005A00360094
:1001E0003000000010034B00420044004600610054
:1001F0006E00730000000403090409023B000201C1
:1002000000A0FA0904000001030101000921110105
:1002100000012240000705810308000A09040100CB
:100220000103000000092111010001226D000705F2
:10023000820320000A12011001000000085A4460E5
:100240002201000102000105010980A101850319B5
:10025000012AB700150126B700950175108100C06D
:10026000050C0901A101850419012AA00215012626
:10027000A002950175108100C005010906A1018544
:1002800005050719E029E715002501950875018185
:10029000020507190029EF1500250195F075018168
:1002A0000205081901290595057501910295017549
:1002B000039101C005010906A101050719E029E71D
:1002C00015002501950875018102950175088101C8
:1002D0000507190029FF150026FF009506750881FE
:1002E000000508190129059505750191029501750B
:1002F000039101C011241FBECFEFDAE0DEBFCDBFF6
:1003000004B603FE27C080918A0290918B02A091CF
:100310008C02B0918D028730904BA740B04BD1F446
:1003200010928A0210928B0210928C0210928D020F
:1003300014BE84B7877F84BF0FB6F894A8958091C8
:100340006000886180936000109260000FBEE0E062
:10035000F8E3099511E0A0E0B1E0E2E0F0E402C0CA
:1003600005900D92A438B107D9F722E0A4E8B1E0D6
:1003700001C01D92AA38B207E1F70E94E5190C945A
:10038000D71F0C94000081E0089581E008950C943B
:10039000C50108950C94C9011F93CF93DF9300D03A
:1003A00000D00F92CDB7DEB749835A836B8330916B
:1003B000A60189819A8131111DC06623B9F02223DB
:1003C000A9F00E94AE14182F682F89819A810E948B
:1003D0005A1469817A81812F0F900F900F900F909E
:1003E0000F90DF91CF911F910C94A6020E9486146A
:1003F000182FEFCF0E94AE1469817A81EDCFFC01F6
:10040000262F408151816281738184810C94CC01BB
:10041000CF93DF93EC0160E00E94FF01BE01DF910A
:10042000CF910C94CA010E94FF050E9497020E947E
:10043000CA080C9424060C94270608950E94C40F41
:100440000E941D022FEF84E39CE0215080409040E9
:10045000E1F700C000000C9468180F931F93CF932E
:10046000DF938C0161E00E94FF01EC01B8010E9462
:10047000C7018823D9F1B801CE010E94360888232C
:10048000A9F1B801CE010E944609882379F1B8018B
:10049000CE010E949809882349F1B801CE010E943B
:1004A000BB0A882319F1F8018281882361F0CB35DA
:1004B000FDE5DF0721F170F4C115ECE5DE07A1F0E1
:1004C000CF3DDC45C9F0C801DF91CF911F910F915D
:1004D0000C94C301CC358DE5D807A1F0CD35DD45B1
:1004E00091F70E945515EFCF0E941E0280E0DF9128
:1004F000CF911F910F9108950E94D216F7CF0E94BD
:100500005E15E1CF0E946115DECF08950C9485023F
:1005100081E00895CF93C82F0E948802882319F0A4
:10052000C1FD03C02A9ACF9108952A98FCCF229A40
:100530002A9A0895CF93C82F0E9486028C2FCF91BC
:100540000C948A0290E080E008950895972F70E05F
:100550002FE0929F600D711D1124FB019BE4899F88
:10056000E00DF11D1124EE0FFF1FE455FF4F8591A3
:1005700094910895FC01EE0FFF1FE852FE4F859104
:1005800094910895CF93DF930E94A6020E94CE0318
:10059000EC01811520E5920708F041C0811530E497
:1005A000930708F0B4C0803E910518F5803C910592
:1005B00008F09DC0883A910570F4853A910508F0DD
:1005C0008EC081309105F9F00097E9F00497D8F4D6
:1005D000D0E0C0E018C08F3B9105D0F7C85AD0E0FA
:1005E000CC0FDD1FC35FDE4F0990D881C02DD464CE
:1005F0000AC08115904258F4C11581E0D80718F45B
:10060000C83ED10528F7CE01DF91CF910895C115DD
:1006100090E3D90708F071C0CE019F706AC08115C0
:1006200025E5920758F5811534E5930708F09EC03B
:10063000811542E5940750F4C11581E5D80708F407
:1006400069C0DC2FCC27C16FD06ADDCF982F96957B
:1006500096959E0123703327C115D34508F077C0C6
:10066000C1E0D0E002C0CC0FDD1F2A95E2F720E206
:10067000929FC0011124C82BD92B67C0C11589E5F1
:10068000D807A8F4C11598E5D90708F074C0C115BA
:1006900026E5D20708F09CCF8C2F0E946504C82F56
:1006A000D0E0DC2FCC27CC27DF71D062ACCFC115D6
:1006B0003AE5D30708F464C0CE0190568115904204
:1006C00008F086CF8D2F8F710E94650490E0982FDF
:1006D000882788279F719C012C2BE901E6CFC55AFA
:1006E000D0E0C55CDE4FC881D0E0D0648CCF805CA8
:1006F00091090E94BA02EC0186CFCE019927D3FF5F
:1007000003C0EC01D86C7FCFEC01D06C7CCFDF70E4
:10071000D06A79CFCE01E4E096958795EA95E1F726
:1007200083702C2F26952695237090E2299F9001A7
:100730001124382B8C2F8370C1E0D0E002C0CC0F85
:10074000DD1F8A95E2F7C22BD32BDC685CCFC1E0BA
:10075000D0E002C0CC0FDD1F2A95E2F730E2939F74
:10076000C0011124C82BD92BDA684DCFD82FCC2744
:10077000C46FD06A48CFDC2FCC27C06FD06A43CF7C
:100780008C2F8F700E94650434E0D695C7953A95FA
:10079000E1F7CF709C2FEC01D06935CF82389105FD
:1007A000B1F1B0F48133910509F475C048F4893290
:1007B000910509F469C08A32910509F473C008955E
:1007C0008533910509F459C08933910501F10895E4
:1007D000833E9105A9F138F4803E9105F9F0823EFF
:1007E000910549F10895863E9105A9F1873E91054D
:1007F000C9F1843E910519F52091630221FF1FC0C4
:100800008091620284FD14C087EE90E008952091EB
:1008100062022370A1F080EE90E0089520916202C0
:1008200020FD47C03091630230FF09C024FF44C05F
:1008300090E080E004C02091620222FDF7CF08958D
:100840002091620222FD3BC03091630230FDE3CF74
:1008500024FFF5CFEDCF2091620223FFF0CF24FDDE
:10086000E7CFD2CF2091620223FD2CC030916302EA
:1008700031FFEECF84EE90E008952091620225FFD3
:10088000DECF89E290E008952091620225FFD7CF64
:1008900085E390E008952091620226FFD0CF8AE29E
:1008A00090E008952091620226FFC9CF81E390E095
:1008B000089589E390E0089583EE90E0089582EE34
:1008C00090E0089586EE90E008959091620292FF84
:1008D00006C0282F28712830F9F4877F846093FFA1
:1008E00006C0282F28712831F1F4877E8461209179
:1008F000630220FF06C0382F38713830D9F4877F63
:10090000816021FF06C0282F28712831D1F4877E0D
:10091000816194FD877E0895282F24712430F9F693
:100920008B7F8860DCCF282F2471243101F78B7EE8
:100930008861DDCF382F3171313019F78E7F8860B3
:10094000E0CF282F2171213121F78E7E8861E1CF00
:10095000AF92BF92CF92DF92EF92FF920F931F93CD
:10096000CF93C0E0CC24C394D12CE82EF12C8C2F53
:100970000E9429065C0110E000E0C601002E02C0C2
:10098000880F991F0A94E2F78A219B21892B99F4F9
:100990000F5F1F4F0F30110581F7CF5FC53039F75B
:1009A00080E0CF911F910F91FF90EF90DF90CF905B
:1009B000BF90AF900895602F7C2F80E00E94A60228
:1009C000E816F90629F781E0ECCFCF93C82F8CE227
:1009D0000E94A804882321F08C2FCF910C94A804A6
:1009E00080E0CF910895CF93C5E6C15009F0CAC009
:1009F00089E20E94E504811100C18AE20E94E504B7
:100A000081110E94D21685E00E94E50481110E94A6
:100A1000681887E00E94E504882371F08BE10E944A
:100A2000E504882309F4B7C090913E02892F8D7F99
:100A300091FF826080933E0280913E020E943216B6
:100A400080EE0E94E504882341F090916202892F94
:100A50008E7F90FF81608093620289E30E94E504AB
:100A6000882341F090916202892F8D7F91FF8260EF
:100A70008093620282EE0E94E504882341F0909107
:100A80006202892F8B7F92FF84608093620286EEE0
:100A90000E94E504882341F090916202892F877FAC
:100AA00093FF88608093620283EE0E94E5048823AE
:100AB00041F090916202892F8F7E94FF8061809334
:100AC000620285E30E94E504882341F0909162026E
:100AD000892F8F7D95FF80628093620281E30E945F
:100AE000E504882341F090916202892F8F7B96FF65
:100AF00080648093620281E10E94E504882341F0D2
:100B000090916202892F97FB87F980588093620247
:100B100080916202909163020E944E1687E20E94C9
:100B2000E504811155C08EE10E94E504811152C097
:100B30008FE10E94E50481114FC080E20E94E5042C
:100B400081114CC081E20E94E504811149C082E21A
:100B50000E94E504811146C083E20E94E5048111F0
:100B600043C084E20E94E5048111C0E88C2F0E94FA
:100B70003B168FE00E94E5048823C1F181E0CF910C
:100B80000C94D4160E94A0068FE39CE90197F1F71C
:100B900000C000002ACF8EE00E94E504882339F0CF
:100BA00090913E02892F8B7F92FF846043CF80E13A
:100BB0000E94E50490913E02882329F0892F877FC7
:100BC00093FF886037CF892F8E7F90FF816032CF6F
:100BD000C1E0CCCFC2E0CACFC4E0C8CFC8E0C6CF26
:100BE000C0E1C4CFC0E2C2CFC0E4C0CF85E10E9463
:100BF000E504882311F080E0C2CFCF9108950E94D0
:100C00002316811102C00E94D2160E942E168093D4
:100C10003E020E94401690936302809362020E94FB
:100C2000F3040E943716682F70E090E080E00E9485
:100C30005C136091110270911202809113029091E5
:100C400014020C94961308950C94230608950C94A2
:100C50002606E82FF0E0EE0FFF1FE259FD4F8081DE
:100C600091810895089580EA8A95F1F7089500C06A
:100C700008950C943306F894E82FE295EF70F0E0B5
:100C800031A1282F2F7081E090E001C0880F2A95B4
:100C9000EAF7982F9095932391A392A1892B82A391
:100CA000789408950F931F93CF93DF9380E90E9468
:100CB0003B0681E90E943B0682E90E943B0683E9EC
:100CC0000E943B0685E90E943B06CEE3D1E00DE49D
:100CD00011E089910E943B060C171D07D1F7109275
:100CE00065021092640210926F0210926E021092CE
:100CF00067021092660210927102109270021092B6
:100D0000690210926802109273021092720210929D
:100D10006B0210926A021092750210927402109285
:100D20006D0210926C02109277021092760285E0AA
:100D30000E942007DF91CF911F910F910C94130215
:100D4000AF92BF92DF92EF92FF920F931F93CF93D8
:100D5000DF93CDE4D1E004E612E0D12CEE24E3945D
:100D6000F12C8991F894E82FE295EF70F0E021A141
:100D70008F70A70102C0440F551F8A95E2F7CA0180
:100D8000922F982B91A392A18095892382A3789486
:100D90000E943706EEE3F1E030E020E0B12CA12C18
:100DA0004191A42FA295AF70B0E090968C9190E005
:100DB0004F7002C0959587954A95E2F780FD3BC03C
:100DC000C701022E02C0880F991F0A94E2F7A82AD1
:100DD000B92A2F5F3F4F2F30310511F7FE013197B0
:100DE00080810E943B060E943906F8018081918132
:100DF000A816B90619F1B182A08281E0D82A0E5F47
:100E00001F4FF1E0C235DF0709F0ABCF2D2D45E0D4
:100E10006EE672E084E692E00E9421070E941B02C7
:100E20008D2DDF91CF911F910F91FF90EF90DF906B
:100E3000BF90AF90089590E080E0C9CF80E0DECF12
:100E40000895FF920F931F93CF93DF93F82E092FEE
:100E5000162FD72FC42F222349F081E080938801D9
:100E60000E941D18909387018093860180918801CC
:100E70008823A1F080918601909187010E94351806
:100E8000069760F0EF2DF02FA12FBD2F90E080E0AE
:100E9000D0E08C179D0744F010928801DF91CF912C
:100EA0001F910F91FF900895219131912D933D93C2
:100EB0000196EFCF86E090E00C94951F682F86E0B6
:100EC00090E00C94A31FE8E7F2E0808184708962CF
:100ED00080830C945E070E942316811104C00E9437
:100EE000D2160E9463070E945A07809378028033CB
:100EF00020F0877088628093780290917802892F21
:100F0000817090FF04C0892F8695869586950C94F4
:100F10006B0880917802982F9695969596959530C6
:100F200040F49F5F990F990F990F8770892B8093D9
:100F30007802809178028160809378020E945E0737
:100F4000809178028695869586950C946B088091A1
:100F50007802982F987F79F0885080937802887F64
:100F600091E009F490E08091780290FB80F9809301
:100F700078020E945E078091780286958695869514
:100F80000C946B088091780280FD13C0816080937F
:100F90007802813019F489E0809378028091780298
:100FA0000E945E07809178028695869586950C94BE
:100FB0006B0808958091780280FF08C08E7F80932F
:100FC00078020E945E0780E00C946B08089580917F
:100FD000780280FD0C94DA070C94C2079091780295
:100FE000892F8695869586958F5F8F71977086304D
:100FF000D8F4880F880F880F892B8093780280910E
:101000007802887F91E009F490E08091780290FB6B
:1010100080F9809378020E945E078091780286951D
:10102000869586950C946B0890937802E8CF86306D
:1010300008F085E0909178029770282F220F220FF8
:10104000220F922B90937802987F21E009F420E000
:101050009091780220FB90F9909378020C946B08A1
:101060000E941708809178020C945E079C01FB0196
:101070008281882349F12E3BFCE53F07C9F040F40B
:101080002C3BECE53E0769F02D3B3C4579F008959B
:10109000203C9CE5390791F070F0213C3C4589F0FB
:1010A000089585E00E94300880E0089580E0FACF3E
:1010B0000E94A707F9CF0E948907F6CF0E94E70791
:1010C000F3CF0E94EE07F0CF81E00895269A2E9884
:1010D00008952E980895CF92DF92EF92FF92CF93CA
:1010E000C82F863040F5811127C0809180008F7D08
:1010F000809380000E9469082C2F30E0AFEFBFEF93
:101100000E947B1F25E030E040E050E00E94531F2A
:10111000C9012C3764E13607A8F469E070E00E9449
:101120003F1F70938B0060938A00CF91FF90EF90E8
:10113000DF90CF900895C5E0809180008062809319
:101140008000DACF2A50374D4F4F5F4F942F832FB7
:10115000722F662725EF38E241E050E00E94531FCE
:1011600069017A01CA01B9010E942F1F9B01AC01DC
:10117000C701B6010E942F1F672F782F892F99274B
:101180006115710521E08207910559F66FEF7FEF38
:10119000C8CF08950E94660882E28093800089E1AA
:1011A000809381008FEF9FEF90938700809386005C
:1011B0000C946B070F931F93CF93DF93C42FD22F01
:1011C000FC0182818823C9F040938B010E941D1885
:1011D00090938A018093890180E28C0F883008F017
:1011E00050C0C77081E001C0880FCA95EAF7DF914F
:1011F000CF911F910F910C945A0D10918B011413E4
:1012000035C08091890190918A010E943518883CEF
:10121000910560F5C0E2CD0F1D17B9F080E2810F96
:10122000883040F4177081E001C0880F1A95EAF702
:101230000E94610DC83048F481E09D2F977001C075
:10124000880F9A95EAF70E945A0D802F0E94520D3E
:10125000C830B8F4D77081E001C0880FDA95EAF79A
:10126000DF91CF911F910F910C94610D80E28C0F53
:10127000883038F4C77081E001C0880FCA95EAF75A
:10128000EFCFDF91CF911F910F9108950F939C01A4
:10129000CB01243F4CE5340759F1A8F4293DFCE586
:1012A0003F0701F12A3D4CE53407D1F1283D3C458B
:1012B00091F406E221EE41EE68ED7CE50E94DA0849
:1012C00080E00F910895263FFCE53F07E9F0B0F07C
:1012D000273F3C45F9F0FC018281882339F11092C7
:1012E0008B01EFCF07E225EE45EE69ED7CE5E6CF19
:1012F00006E221EE40EE64EF7CE5E0CF07E225EE6A
:1013000044EE65EF7CE5DACF06E221EE42EE66EFD1
:101310007CE5D4CF07E225EE46EE67EF7CE5CECF45
:1013200008E221E045EE6AED7CE5C8CF81E0C9CF57
:10133000CF93DF93EC01FB018281882309F419C16B
:10134000C230FCE5DF07C0F1C6319CE5D90730F0BB
:101350009E012B5F3C452930310570F50E944016F7
:101360009093630280936202C031ECE5DE0709F4DA
:10137000CFC008F05BC0C8308CE5D80709F4B6C010
:1013800088F5C430ECE5DE0709F4A8C0C0F4C2302B
:101390008CE5D80709F49CC0809162028260C3305A
:1013A000DC4509F498C080916202909163020E942A
:1013B0004E160E94C40F80E0DF91CF910895809176
:1013C00062028061C630ECE5DE0709F484C08091DA
:1013D00062028860C730DC4508F47DC080916202FB
:1013E000806279C0CC308CE5D80709F489C070F4EC
:1013F000809162028C60CA30ECE5DE0709F46BC0B4
:1014000008F478C0809162028E7F65C0CE308CE592
:10141000D80709F479C0809162028B7FCF30DC4518
:1014200008F459C0809162028F7E55C0CC3FECE534
:10143000DE0709F457C030F5C3318CE5D80709F44D
:101440006FC078F4C131ECE5DE0709F465C0C23144
:10145000DC4509F0A8CF0E94C40F809162028F770B
:101460003AC0C5318CE5D80709F462C008F476C0EB
:10147000809163028160CB3FDC4509F094CF80937B
:10148000630291CFC115FDE5DF0709F44DC088F473
:10149000809163028D7FCE3F9CE5D90781F38091D7
:1014A00063028E7FCF3FDC4550F3809163028360FF
:1014B000E6CFC230FDE5DF0709F459C008F444C0A7
:1014C00080E0C330DD4509F06ECF0E94D4166BCFAB
:1014D0008091620281608093620265CF8091620296
:1014E0008460F9CF809163028260C9CF80916202EB
:1014F0008064F1CF0E94C40F809162028068EBCFBC
:10150000809162028D7FE7CF80916202877FE3CF77
:10151000809162028F7DDFCF809162028F7BDBCF73
:1015200080916202837FD7CF809163028C7FA7CFA7
:101530008091620282FB992790F921E0922790FB2B
:1015400082F990FB83F9C7CF80916302982F909521
:1015500091708E7F892B90FB81F991CF0E94C40FEF
:1015600090916202892F97FB87F98058B4CF81E070
:10157000ACCF81E021CFCF93DF93EB0186319C4547
:1015800011F50E9464159A81992399F08A7A91E065
:1015900009F490E090938C01811109C089E20E94C6
:1015A0001E150E94B41580E0DF91CF91089585E368
:1015B000F6CF80918C01811104C089E20E9425152B
:1015C000F0CF85E3FBCF81E0EFCF90939201809342
:1015D00091010895E0919101F0919201309721F0ED
:1015E0000190F081E02D099480E00895E09191014F
:1015F000F0919201309799F020910C01222359F03B
:101600002091620227FF07C0DC012C9111962C93D8
:10161000119725E02C930280F381E02D0994089521
:1016200020918F01309190012817390771F0909324
:10163000900180938F01E0919101F0919201309798
:1016400021F00680F781E02D0994089520918D0105
:1016500030918E012817390771F090938E01809395
:101660008D01E0919101F0919201309721F0008479
:10167000F185E02D099408950E9429186093A20134
:101680007093A3018093A4019093A50160939E01A0
:1016900070939F018093A0019093A101089585B755
:1016A000806885BF85B7806885BF089508950895CF
:1016B0000C94560B08950C945A0B0E944F0B81E228
:1016C00096E10E948C180E94570B0C94580B81E0F5
:1016D00008950C94670B089508950E946B0B0C9469
:1016E0006C0B0E9414180E9452060E946B070C9407
:1016F0005B0B8F929F92AF92BF92CF92DF92EF924D
:10170000FF920F931F93CF93DF93CDB7DEB72A9746
:101710000FB6F894DEBF0FBECDBF0E94A0068111A8
:101720000E943C0B54E9852E51E0952E10E000E01C
:10173000A02E802F0E9429066C01F401E190F19007
:101740004F01E816F90609F45CC080913E0281FD64
:101750000E943206C7018C259D25B12CEE24E3940E
:10176000F12C9C012E213F21232B09F444C00E941F
:10177000690B8823A9F0BE82AF82CE20DF2081E0F2
:10178000CD2809F480E088870E941D188160782F99
:101790009A8789874E815F8168858A850E942B0C94
:1017A000000F111FF801EC56FE4F80819181E82651
:1017B000F926F182E0820E94C9080E94EA0A90910B
:1017C00093018917A9F10E94EA0A809393012A964E
:1017D0000FB6F894DEBF0FBECDBFDF91CF911F9142
:1017E0000F91FF90EF90DF90CF90BF90AF909F90C0
:1017F0008F900C949A02B394EE0CFF1CFFE0BF1282
:10180000B0CF0F5F1F4F0530110509F091CF8FEF5B
:1018100089838A831B820E941D188160782F9D8393
:101820008C8349815A816B818D810E942B0CC3CF9F
:101830002A960FB6F894DEBF0FBECDBFDF91CF91D1
:101840001F910F91FF90EF90DF90CF90BF90AF90DE
:101850009F908F900895DF92EF92FF920F931F93C6
:10186000CF93DF93CDB7DEB72B970FB6F894DEBFDB
:101870000FBECDBF7A878B87F42E052F162FE72E4C
:10188000D82E61110E9484151E821D827E2DEC824D
:10189000DD824F2D502F612F8D2D9E812B960FB6FF
:1018A000F894DEBF0FBECDBFDF91CF911F910F9196
:1018B000FF90EF90DF900C943A12FC0180819181AF
:1018C0000C94F014CF93C82F882309F483C0823876
:1018D000C1F40E94EA0A81FD7DC089E30E941E15C1
:1018E0000E94B4152FEF81EE94E02150804090408B
:1018F000E1F700C0000089E30E942515CF910C9408
:10190000B4158338A1F40E94EA0A80FD63C083E520
:101910000E941E150E94B4152FEF81EE94E0215015
:1019200080409040E1F700C0000083E5E5CF8438B7
:10193000A1F40E94EA0A82FD4DC087E40E941E15B0
:101940000E94B4152FEF81EE94E02150804090402A
:10195000E1F700C0000087E4CFCF8CEF8C0F813A15
:1019600090F46C2F80910001909101010E94ED167E
:10197000882329F08C2F0E9425150E94B4158C2FE6
:101980000E941E15BBCF80E28C0F883048F4C770D0
:1019900081E001C0880FCA95EAF70E946715AECFB3
:1019A000EBE5EC0FE33040F4F0E0E058FE4F8081CF
:1019B00090E0CF910C94100BC85AC73158F4EC2F1B
:1019C000F0E0EE0FFF1FEE5AFE4F80819181CF9124
:1019D0000C94260BCF910895882309F44BC08238CC
:1019E00071F40E94EA0A81FF45C089E30E941E1536
:1019F0000E94B41589E30E9425150C94B415833810
:101A000059F40E94EA0A80FF35C083E50E941E1542
:101A10000E94B41583E5EFCF843859F40E94EA0A96
:101A200082FF28C087E40E941E150E94B41587E437
:101A3000E2CF9CEF980F913AF0F290E2980F983035
:101A400050F4877091E001C0990F8A95EAF7892FC9
:101A50000E946D15D2CF9BE5980F933020F490E053
:101A600080E00C94100B885A873120F490E080E0DD
:101A70000C94260B08951F93CF93DF93182FEB013F
:101A80000E94620C209731F4812FDF91CF911F913A
:101A90000C94EC0C8FE99FE00197F1F700C0000077
:101AA0002197F0CF70E060E0893311F460E570E0D9
:101AB0000C943B0D882321F00E9467150C94B415FB
:101AC0000895882321F00E946D150C94B415089593
:101AD000BF92CF92DF92EF92FF920F931F93CF931B
:101AE000DF936C01D62FC72FFC011281058102956F
:101AF0000F700E943C15E82E8823A1F0E12E1123DF
:101B000089F08C2F807F803429F080E28D0FE12CCA
:101B1000883040F082E00E9405160E943C1591E05A
:101B2000E82EE926BC2EB2949FE0B922EB2DF0E01E
:101B3000E752F04E0C94751F0C2F0F70C07F11F000
:101B40000295007F1123A9F0002359F080E28D0F48
:101B5000883010F0D11109C0802F0E9467150E94B3
:101B6000B4158D2F0E94620C14C0802F0E9477152F
:101B7000F6CF8D2F0E94EC0C002359F080E28D0FE0
:101B8000883010F0D1112CC0802F0E946D150E945A
:101B9000B4152B2D2850330B2430310520F40E942E
:101BA000EA0A0E949A02EE2009F493C10E943815B5
:101BB00080FD8FC1F60112820E9432150E94BE1371
:101BC000C6010E948A0F0E943215DF91CF911F91AA
:101BD0000F91FF90EF90DF90CF90BF900C94DF13A8
:101BE000802F0E947D15D3CFFC2FFF70FF2EC07F6A
:101BF000C03219F0F29480EFF822DD2369F0D13081
:101C000049F1112391F1002351F1F601858180FF03
:101C1000A8CF8F70858323C0112381F0011106C0E6
:101C20000E9497158F290E945A0DB3CF0130C1F73A
:101C30000E9497158F290E949D15ABCF011106C0F8
:101C40000E94AA158F2D0E94610DA3CF013009F4C7
:101C5000A0CFF6CF112329F0063008F09ACF8F2DB0
:101C6000E2CF053008F095CFEDCF002359F3D933FB
:101C700049F4FFEF27EE33E0F15020403040E1F728
:101C800000C000008D2F0E94EC0C83CF8C2F869516
:101C90008695837069F0813009F07BCF8D2F9C2F62
:101CA0009370111102C090E080E00E94260B71CF6A
:101CB0008D2F9C2F9370111102C090E080E00E9444
:101CC000100B67CF8C2F837009F041C0111161CFC9
:101CD0004D2F429546954770440F440F0D2F0F70BE
:101CE00010E030E020E0042E04C0000F111F221F7E
:101CF000331F0A94D2F760E070E0CB01D4FF0FC02D
:101D00006FE070E080E090E004C0660F771F881FEE
:101D1000991F4A95D2F76095709580959095C695D4
:101D2000C695C370602B712B822B932BC23049F068
:101D300058F4C13019F00E9470132BCF0E945E132B
:101D400028CF0E94821325CF0E945C1322CF869554
:101D5000112311F08C2F8170882309F41ACF4D2F95
:101D6000429546954770440F440F0D2F0F7010E0B9
:101D700030E020E0042E04C0000F111F221F331F8B
:101D80000A94D2F760E070E0CB01D4FF0FC06FE09F
:101D900070E080E090E004C0660F771F881F991FF5
:101DA0004A95D2F76095709580959095C695C695A1
:101DB000C370602B712B822B932BC23049F058F4E7
:101DC000C13019F00E943514E4CE0E942314E1CEF4
:101DD0000E944714DECE0E949813DBCECF701123F1
:101DE00029F08C2F0E94BE138D2F1DCF8D2F0E94A6
:101DF000610D8C2F0E94DF13CCCED23F89F160F4AD
:101E0000D03FC9F0D13F29F1112309F442C001119B
:101E1000A8CE8C2F8F7121C0D33F39F1D43FA1F7C9
:101E2000112369F1CF718C2F0E94BE1363E08C2FB8
:101E30000E94EA15AECE112341F0053008F0A9CE7C
:101E40008C2F8F710E940214A4CE063008F0A1CE10
:101E5000F7CF8C2F8F71112369F20E94BE1399CE98
:101E60008C2F8F711123C9F3C5CF112329F08C2F2B
:101E70008F710E94A9138DCE0E94A4138ACE81E097
:101E80000E940516023008F484CE82E00E940516F6
:101E900080CE002359F0D93309F0F4CE8FEF97EEBE
:101EA000E3E081509040E040E1F7EACE8C2F8F7163
:101EB000A1CF4C2F4F706D2FC6010E94A2020E942D
:101EC000D41267CE4C2F4F706D2FC6010E94A50211
:101ED00060CEDF91CF911F910F91FF90EF90DF9037
:101EE000CF90BF9008950F931F93CF93DF93EC0192
:101EF000688179818A810E94FA148C010E945914A8
:101F00000E945B13B801CE01DF91CF911F910F9119
:101F10000C94680DCF93DF93EC018B819C81892B0E
:101F200029F08881998189238F3F59F4DF91CF91DE
:101F30000895CE010E94730FCE01DF91CF910C94D2
:101F40000802CE010E942D028111F3CF0E943C15A0
:101F5000882361F38A81882349F382E0DF91CF915E
:101F60000C94051690E080E00E94100B90E080E059
:101F70000E94260B0E9484150E9494150C94B4159F
:101F80000E942C150C94B20F0E9474150C94C00F73
:101F9000E92FE295EF70E250EE3070F4F0E0E75197
:101FA000F04E0C94751F803F19F020F4883E20F409
:101FB00081E00895843FE1F380E00895883EC0F316
:101FC000813FD1F7F5CF93FB882780F908950E94D0
:101FD000F0140C94C80FCF93DF9300D000D00F9271
:101FE000CDB7DEB70F900F900F900F900F90DF914D
:101FF000CF910895CF93DF9300D000D000D0CDB71C
:10200000DEB726960FB6F894DEBF0FBECDBFDF91C8
:10201000CF9108951F93CF93DF93C091A70116E04E
:102020008091A8018C1304C0DF91CF911F91089576
:10203000D0E01C9FF0011D9FF00D1124E755FE4FCD
:102040004081518162817381848195810E94FA0F60
:102050002196C770E5CF4091D9015091DA01609186
:10206000DB017091DC018091DD019091DE010C9427
:10207000FA0F1F93CF93DF938091DE01807FA9F445
:102080008091DB01882389F08091A701C091A8018C
:102090006091D9017091DA01A091DC01B091DD016C
:1020A000D62FD72316E0C81304C0DF91CF911F911C
:1020B000089590E0109711F0DF3F19F401968770B2
:1020C000F2CF189F9001199F300D1124F901E755A7
:1020D000FE4F41814713F2CF40814613EFCF42813B
:1020E0004111ECCF438154814A1B5B0B483C5105A5
:1020F00028F78091DE018F7080618093DE01F90105
:10210000E255FE4F80818F708061808389ED91E080
:102110000E948A0FDF91CF911F910C940A10AF9209
:10212000BF92CF92DF92EF92FF920F931F93CF93C4
:10213000DF93CDB7DEB761970FB6F894DEBF0FBE61
:10214000CDBF8C0185E0F801DE011D9601900D9256
:102150008A95E1F7F80140815181E28089EDC82E2E
:1021600081E0D82E6091DC017091DD01611571056F
:1021700009F461C19091D9012091DA01892F82235C
:102180008F3F09F458C1A380B480F090DB01F501C2
:10219000E61BF70BFF2009F4FCC08091DE01382F0D
:1021A000307FE83CF10508F0B2C0311179C0FE2C57
:1021B000251323C0941321C0E1101FC08F708061CC
:1021C0008093DE010E942B10C6010E948A0F80912D
:1021D000DE01F80185838F2D61960FB6F894DEBF7E
:1021E0000FBECDBFDF91CF911F910F91FF90EF9068
:1021F000DF90CF90BF90AF900895AB2829F0842F47
:1022000085238F3F09F033C180E0F82FF170DF2E76
:1022100080FF3CC08091A7012091A80136E0821385
:1022200015C04D875E878D859E850E94F014292FED
:1022300022952F702230F0F0243018F59F70F1F0C5
:10224000F8019581907FD1F4D12C1EC090E0389F89
:10225000F001399FF00D1124E755FE4F61816513A0
:1022600006C06081641303C062816E110FC00196C5
:102270008770D5CF9F7011F0882331F3805E88304E
:1022800018F3C8010E948A0FFD2CA5CFEE2009F497
:10229000A2CF8091DE0181608093DE01F12C9BCF83
:1022A000251306C0941304C0F801EE2009F48DC074
:1022B0004D875E878D859E850E94E70F882319F1E3
:1022C000EE2009F18091DE01803270F02091D90179
:1022D0003091DA0138872F831986BB86AA868C87CE
:1022E000CE0107960E948A0F86E0F801A9EDB1E0C1
:1022F00001900D928A95E1F70E9439100E942B10EF
:10230000FF24F39468CFC8010E948A0FF9CF3111DE
:1023100013C07A2DB98AA88A6E2D89890E94EB0F85
:1023200089ED91E00E948A0F86E0F60111928A956C
:10233000E9F70E942B10B2CF25130FC094130DC0E4
:10234000E1100BC0F8018583C8010E948A0F86E066
:10235000F60111928A95E9F73ECF4D875E878D850C
:102360009E850E94E70F882371F2EE2061F2809132
:10237000DE01803208F4B8CF2091D9013091DA0122
:102380003A8329831B82BD82AC828E83CE01019663
:10239000A9CFE83CF10508F041C0FE2CEE2009F47D
:1023A000B2CF25132AC0941328C08091DE0180FD8E
:1023B0001BC0982F907FC1F0F8018583903F31F0CA
:1023C000982F907F905F8F70892B8583C8010E9422
:1023D0008A0F86E0F801A9EDB1E001900D928A958F
:1023E000E1F70E942B10F7CE86E0F801A9EDB1E0ED
:1023F00001900D928A95E1F7EECE4D875E878D852F
:102400009E850E94E70F81116FCF8091DE01816070
:102410008093DE01C8010E948A0FDDCE7A2DB98A31
:10242000A88A6E2D89890E94EB0F86E0F601119231
:102430008A95E9F7D6CFEE2009F465CF4D875E8700
:102440008D859E850E94E70FF82E882309F45BCFC7
:1024500086E0F801A9EDB1E001900D928A95E1F7CF
:1024600089ED91E00E945D0C0E943910BACF81E0A5
:102470008E25CBCE1F93CF93DF93CDB7DEB72C97AE
:102480000FB6F894DEBF0FBECDBF4F835887698764
:102490007A878B879C87CE0107960E948F108823AE
:1024A00069F08A859B85892B39F04F815885842F67
:1024B00085238F3F09F071C016E05FC086E0FE0102
:1024C0003796DE01119601900D928A95E1F78A8583
:1024D0009B85892B89F38F81988589238F3F61F3B1
:1024E0002091A80130E0C901019687709927409199
:1024F000A7014817190671F40E94C40F1092A80191
:102500001092A70186E0E9EDF1E0DF011D928A95C6
:10251000E9F7D2CF96E0929FD001939FB00D11249E
:10252000A755BE4FFE01319601900D929A95E1F7A5
:102530008093A8010E940A10BFCF819FC00111247F
:1025400087559E4F0E948F108823E9F0E091A701E4
:102550001E9FF0011124E755FE4F40815181628199
:102560007381848195810E94FA0F8091A70190E088
:102570000196877099278093A7018091A701909178
:10258000A8018913DACF2C960FB6F894DEBF0FBEE0
:10259000CDBFDF91CF911F91089569857A858B8595
:1025A0009C850E94FA0F88CFEF92FF920F931F93A2
:1025B000CF93DF938C01892B81F0F12CEE24E394EF
:1025C000E8012196F8018491843770F4843008F092
:1025D0005FC08130B1F08230A1F1DF91CF911F91C6
:1025E0000F91FF90EF900895853709F44CC008F4DF
:1025F0003DC09CE7980F903780F78F770E94EC0CD6
:1026000049C00E5F1F4FFE01849190E2980F9830F1
:1026100060F48770FE2D01C0FF0F8A95EAF78F2FB7
:102620000E9487150E94B41502C00E94620C8F2D73
:10263000815030F2EFE9FFE03197F1F700C0000080
:10264000F7CF0E5F1F4FFE01849190E2980F9830F4
:1026500050F48770FE2D01C0FF0F8A95EAF78F2F87
:102660000E948D15DFCF0E94EC0CE1CF0E5F1F4F53
:10267000FE01C491C150D8F28FE99FE00197F1F7B4
:1026800000C00000F7CF0E5F1F4FFE01F490CFCFC8
:102690000E94620C8E01CBCF08950C944C130E94C3
:1026A0004D13609315027093160280931702909356
:1026B00018020C94B20F08950C944F130F931F93AC
:1026C0000091150210911602209117023091180204
:1026D000602B712B822B932B1F910F910C944F1316
:1026E0000F931F930091150210911602209117026B
:1026F0003091180260237123822393231F910F913D
:102700000C944F130F931F93009115021091160212
:102710002091170230911802602771278227932792
:102720001F910F910C944F130C944C130C94941311
:102730000E94961360931102709312028093130209
:10274000909314020C94B20F60E070E0CB010C94F3
:1027500098130F931F9341E050E060E070E08A010E
:102760009B0104C0000F111F221F331F8A95D2F74F
:10277000C901B8011F910F910C9498130F931F93E7
:1027800041E050E060E070E004C0440F551F661F58
:10279000771F8A95D2F78091110290911202A09131
:1027A0001302B09114028A019B01082B192B2A2BCA
:1027B0003B2BC901B8011F910F910C9498130F93F3
:1027C0001F9341E050E060E070E004C0440F551FEB
:1027D000661F771F8A95D2F7CB01BA016095709575
:1027E0008095909500911102109112022091130290
:1027F0003091140260237123822393231F910F9140
:102800000C9498130F931F9341E050E060E070E048
:1028100004C0440F551F661F771F8A95D2F7809119
:10282000110290911202A0911302B09114028A0138
:102830009B01082719272A273B27C901B8011F91A7
:102840000F910C9498130F931F9300911102109104
:1028500012022091130230911402602B712B822BF3
:10286000932B1F910F910C9498130F931F9300912A
:102870001102109112022091130230911402602370
:102880007123822393231F910F910C9498130F931C
:102890001F930091110210911202209113023091A6
:1028A000140260277127822793271F910F910C94A0
:1028B000981308952FE0929F800D1124982F977000
:1028C00041E001C0440F9A95EAF786958695869572
:1028D00095E0899FF0011124E152FE4F90E080E0E5
:1028E00070E05191DF0111979B01082E02C03695CF
:1028F00027950A94E2F7217021952527242325277F
:102900002C9301968530910561F708952FE0929FF1
:10291000800D1124982F977086958695869525E0D1
:10292000829FF0011124E152FE4F50E040E080E030
:10293000219130E0092E02C0369527950A94E2F7DE
:1029400021703327042E01C0220F0A94EAF7822B4C
:102950004F5F5F4F4530510559F70895BF92CF92B1
:10296000DF92EF92FF920F931F93CF93DF938C012F
:10297000C0901102D0901202E0901302F090140265
:102980008091150290911602A0911702B091180241
:10299000C82AD92AEA2AFB2ACFE1D0E0BC2ED701E7
:1029A000C6010C2E04C0B695A795979587950A94F5
:1029B000D2F780FD0EC0219788F7B12C8B2DDF91C7
:1029C000CF911F910F91FF90EF90DF90CF90BF902C
:1029D0000895B8018C2F0E94C202019761F3EECFD7
:1029E000CF93DF93EC010E94AE14BE01DF91CF9133
:1029F0000C94C2021F93CF93DF93EB019091A60139
:102A0000992331F0CB01DF91CF911F910C94F014F9
:102A1000882379F0CB010E94AE14182F682FCE01C5
:102A20000E945A14BE01812FDF91CF911F910C9407
:102A3000C202CB010E948614182FF4CF682F809118
:102A40000001909101010C946D17682F8091000195
:102A5000909101010C9478178091000190910101EF
:102A60000C94831780911902859585958595089515
:102A7000809119028770089590911902977081E0F2
:102A800009F480E008959091630292FB222720F9D7
:102A9000281751F080FB92F99093630280916202B3
:102AA000909163020C944E1608958091630282FB0C
:102AB000882780F991E089270C94431581E00C94D4
:102AC000431580E00C94431580913D020895909148
:102AD0003D02892B80933D020895809590913D029F
:102AE000982390933D02089510923D02089590918D
:102AF0003C02892B80933C020895809590913C0282
:102B0000982390933C02089510923C02089590916E
:102B10003B02892B80933B020895809590913B0264
:102B2000982390933B02089510923B020895809160
:102B30001A02089508950C949A159091630292FDDB
:102B400008C090911A02981721F080931A020C94F1
:102B50009B15089580911A02882329F010921A0279
:102B600080E00C949B150895E0910001F091010123
:102B700080913D028083E0910001F091010180810C
:102B800090913C02892B8083E0910001F09101013A
:102B9000808190913B02892B808390911A02992326
:102BA00081F0E0910001F09101018081892B808307
:102BB00080910001909101010E94D91681110E941B
:102BC000AA1580910001909101010C94F60A0895D4
:102BD0000C94E7159091630292FD10C098E0899FD4
:102BE00090011124622B609319020E94BE13809100
:102BF00019028595859585950C94E8150C94BE135E
:102C00001092190280E00C94E815909119028095B9
:102C1000892380931902282F277039F4282F082E32
:102C2000000C330B9217130621F49091630292FF6C
:102C300007C08595859585950E94DF130C94001635
:102C4000089580E0089590E080E00E949D1F21E0BB
:102C50008A3E9E4F09F020E0822F089582E090E0A6
:102C60000C94951F682F82E090E00C94A31F83E0E2
:102C700090E00C94951F682F83E090E00C94A31FC4
:102C8000CF9384E090E00E94951FC82F82E290E0ED
:102C90000E94951F982F8C2FCF910895CF93C92F05
:102CA000682F84E090E00E94A31F6C2F82E290E0E6
:102CB000CF910C94A31FAB01BC018FE090E00C946A
:102CC000B51FAB01BC0183E190E00C94B51F60E03F
:102CD00070E0CB010C94611660E070E0CB010E94C3
:102CE0005B160C9467166AEE7EEF90E080E00E941F
:102CF000C11F60E082E090E00E94A31F60E083E0DB
:102D000090E00E94A31F10921502109216021092DA
:102D100017021092180260E084E090E00E94A31F66
:102D200060E082E290E00E94A31F60E085E090E016
:102D30000E94A31F60E086E090E00E94A31F6FEF57
:102D400087E090E00E94A31F40E050E0BA0188E0D5
:102D500090E00E94B51F60E08DE090E00E94A31F0C
:102D600040E050E0BA0188E190E00E94B51F60E0C9
:102D700087E190E00E94A31F40E050E0BA018CE19F
:102D800090E00E94B51F70E060E080E290E00E9459
:102D9000C11F40E050E0BA0188E190E00E94B51FF9
:102DA0000C946C160C947316682F8EE090E00C94C3
:102DB000A31FFC01329680910C01882321F08091A1
:102DC00062029EE187FF96E080E0915008F408954A
:102DD00021912223D1F38F5FF8CF662301F1209157
:102DE0000C012223F1F02091620227FF1AC0462F26
:102DF0004695469546954E3190F4677021E030E057
:102E000002C0220F331F6A95E2F7840F911DFC0167
:102E1000828190E02823392381E0232B69F480E02C
:102E20000895FC01329608962191261721F0E817A3
:102E3000F907D1F7F4CF81E008959C01FC013296A7
:102E40009FEF80E04191461751F09F3F19F44111E7
:102E500001C0982F8F5F8630A9F79F3F09F408952E
:102E6000290F311D97FD3A95F90162830895FC0100
:102E7000329608962191261303C0DF0111971C9208
:102E8000E817F907B9F70895E62FE695E695E69570
:102E9000EE3168F4E80FF92FF11D677021E030E0A2
:102EA00001C0220F6A95EAF78281822B82830895FE
:102EB000E62FE695E695E695EE3170F4E80FF92FEA
:102EC000F11D677021E030E001C0220F6A95EAF73A
:102ED0002095828128232283089520910C012223AA
:102EE00029F02091620227FD0C9444170C941D17C1
:102EF00020910C01222329F02091620227FD0C94DD
:102F000058170C943717FC01329680910C018823D6
:102F100051F08091620287FF06C08EE1DF011D92B1
:102F20008A95E9F7089586E0F9CF089508950C94FD
:102F3000961780918102843061F10E94971780E09A
:102F40000E946B0880E00E949A0210923F0288E182
:102F500090E020E40FB6F894A895809360000FBE2F
:102F60002093600083B7817F846083BF83B78160D3
:102F700083BF7894889583B78E7F83BF0FB6F8940C
:102F8000A895809160008861809360001092600035
:102F90000FBE08950895CF930E9495170E94A00632
:102FA0000E94CA17C0E08C2F0E942906892B31F499
:102FB000CF5FC530C1F780E0CF91089581E0FCCFAD
:102FC00008950C94E0170E94C40F0E946B070E94A2
:102FD000EA0A0E949A020C94E1171F921FB61F92F0
:102FE00011248F939F93AF93BF9380913F028111E0
:102FF00013C08091790290917A02A0917B02B091E6
:103000007C024196A11DB11D8093790290937A02B2
:10301000A0937B02B0937C02BF91AF919F918F915F
:103020001F901FBE1F90189582E084BD93E095BD50
:103030009AEF97BD80936E0008952FB7F894809112
:10304000790290917A02A0917B02B0917C022FBF0D
:1030500008952FB7F8946091790270917A02809167
:103060007B0290917C022FBF08959C014FB7F8948A
:103070008091790290917A02A0917B02B0917C02BA
:103080004FBF821B930B089578941F921FB61F9217
:1030900011248F939F93AF93BF9380917902909166
:1030A0007A02A0917B02B0917C020196A11DB11D14
:1030B0008093790290937A02A0937B02B0937C0272
:1030C000BF91AF919F918F911F901FBE1F90189538
:1030D00081E08093E00080E28093D8001092C900E4
:1030E0008FE19EE40197F1F700C0000087E090EBCC
:1030F000DC0180938A0290938B02A0938C02B093A0
:103100008D0288E19CE00FB6F894A895809360004A
:103110000FBE90936000FFCF909385018093840150
:1031200008958091600208950895CF93DF9300D0B1
:103130000F92CDB7DEB790918102943019F5898353
:103140007B836A8382E08093E9008FEF9091E800AF
:10315000815095FD06C095ED9A95F1F7000081111B
:10316000F5CF8091E80085FF0DC050E040E063E0BE
:1031700070E0CE0101960E949E1A8091E8008E7741
:103180008093E8000F900F900F90DF91CF910895FA
:10319000BC0184E00C949518BC0183E00C94951854
:1031A000CF93DF93EC0180910C018823B1F18091E2
:1031B000620287FF32C060E282E08093E9008FEF15
:1031C0009091E800815095FD06C095ED9A95F1F734
:1031D00000008111F5CF8091E80085FF1BC0809130
:1031E0000C0170E050E040E0811104C050E040E08C
:1031F00068E070E0CE010E949E1A8091E8008E7710
:103200008093E80080E2FE01A0E4B2E001900D921C
:103210008A95E1F7DF91CF91089568E081E0CDCF05
:1032200080918002811109C00E942E1C0E948B1C7B
:103230008091E20084608093E20008951092800201
:10324000089508950895089542E061EC81E00E9498
:10325000AA1B42E261EC82E00C94AA1B80918302DB
:10326000833009F45FC030F48130C1F1823009F459
:103270009BC008958A3009F487C08B3009F46DC073
:10328000893009F04EC080918202813209F049C034
:103290008091860290918702029708F042C0809147
:1032A000E800877F8093E8008091E80082FF35C0C6
:1032B0009091F3008091F200029729F48091F1003F
:1032C0008B7F813021F48091F100809360028091A6
:1032D000E8008B778093E8000C94DE1B80918202DB
:1032E000813AF9F48091E800877F8093E80080912B
:1032F000860290918702892B61F460E280E492E07B
:1033000070E00E94ED1A8091E8008B778093E800CE
:10331000089560E090E080E0F3CF80918102811118
:10332000C3CF089580918202813AD9F780918602B5
:1033300090918702892BA9F78091E800877F80937D
:10334000E8008091E80080FFFCCF80910C01809321
:10335000F1008091E8008E77BDCF809182028132AA
:1033600001F78091860290918702892BD1F6809196
:10337000E800877F8093E8000E94DE1B8091840232
:1033800080930C010C94C40F80918202813249F623
:103390008091E800877F8093E8000E94DE1B809187
:1033A000850280936102089580918202813A09F03A
:1033B000B8CF8091E800877F8093E8008091E80093
:1033C00080FFFCCF80916102C2CF84B7877F84BF2A
:1033D0000FB6F894A8958091600088618093600092
:1033E000109260000FBE80E890E00FB6F8948093D2
:1033F0006100909361000FBE0E945D0B0E942E1C25
:103400000E948B1C8091E20084608093E20078949B
:103410000E94141F0E94710B82E091E00E94E50A55
:1034200080918102853099F00E94790B0E946D0B8A
:10343000F7CF0E94991780917F02882341F00E9464
:10344000CB17882321F00E94881A0E94C40F809114
:103450008102853071F30E94E317E6CF0C94301A95
:10346000292F33272330310519F168F42130310534
:1034700009F444C02230310509F445C090E080E0F1
:1034800030E020E025C02132310549F122323105FA
:10349000A9F780E490E024EB32E061157105C1F0FA
:1034A0008DE690E027E432E06130710589F0E6CFE7
:1034B00099278130910581F0009729F00297F1F664
:1034C000E8EDF1E002C0E6EFF1E0849190E09F01C9
:1034D000FA01318320830895E4EEF1E0F6CF89E02C
:1034E00090E02CE032E06115710591F389E090E005
:1034F00025E232E06130710559F3C0CF82E190E0FE
:1035000025E332E0E5CF8BE390E02AEF31E0E0CF36
:1035100080E189BD82E189BD09B400FEFDCF8091C3
:10352000D8008F7D8093D8008091E00082608093E6
:10353000E0008091E00081FDFCCF0895AF92BF9242
:10354000CF92DF92FF920F931F93CF93DF936C0183
:10355000EB018A010E94FD1BF82E811123C0011589
:10356000110539F0F80180819181C81BD90BC80E73
:10357000D91EB12CA12C2097A9F08091E80085FDDF
:1035800022C08091E8008E778093E8000115110534
:10359000A1F0F80180819181A80EB91EB182A082AC
:1035A00085E0F82E8F2DDF91CF911F910F91FF9025
:1035B000DF90CF90BF90AF9008950E94FD1B8823AD
:1035C000D1F2F82EEFCFF60181916F018093F100D7
:1035D0002197FFEFAF1ABF0ACECFFC01809188027E
:1035E0009091890286179707A0F06115710529F45B
:1035F0009091E8009E779093E80090E06115710546
:1036000051F4911108C08091E80082FF34C080E03D
:103610000895BC01F2CF809181028823C1F18530E9
:10362000C1F18091E80083FD30C08091E80082FD07
:10363000EACF8091E80080FFE1CF8091F3002091F4
:10364000F200382F6115710519F02830310558F056
:1036500091E02830310509F090E02091E8002E77C4
:103660002093E800CBCF81918093F10061507109E4
:103670002F5F3F4FE7CF80918102882341F0853053
:1036800041F08091E80083FFBECF81E0089582E0A1
:10369000089583E00895FC01809188029091890249
:1036A00086179707A0F06115710529F48091E8004D
:1036B0008E778093E80090E06115710551F49111C7
:1036C00008C08091E80082FF35C080E00895BC0109
:1036D000F2CF809181028823C9F18530C9F18091B0
:1036E000E80083FD31C08091E80082FDEACF80913F
:1036F000E80080FFE1CF8091F3002091F200382FA5
:103700006115710519F02830310558F091E0283025
:10371000310509F090E08091E8008E778093E80011
:10372000CBCF84918093F1003196615071092F5F66
:103730003F4FE6CF80918102882341F0853041F0F0
:103740008091E80083FFBDCF81E0089582E0089575
:1037500083E00895982F973028F08F708093E900C8
:1037600081E008959093E900242F762F50E0981778
:1037700031F07091EC002091ED005091F00021FDAE
:1037800002C09F5FE8CF3091EB003E7F3093EB00AB
:103790003091ED003D7F3093ED003091EB003160D2
:1037A0003093EB007093EC002093ED005093F00009
:1037B0002091EE0027FDE5CF80E008958091820200
:1037C00087FF13C08091E80082FF06C08091E80067
:1037D0008B778093E80004C0809181028111F2CF41
:1037E0000895809181028823D9F38091E80080FFB9
:1037F000F8CF8091E8008E77ECCF2091E4003091F3
:10380000E50095E6A9012091EC00822F817020FF50
:1038100006C08091E80080FF06C080E008952091F6
:10382000E80022FD1AC080918102882389F085304A
:1038300089F08091EB0085FD0FC02091E40030916C
:10384000E50042175307F9F29150E1F684E008953C
:1038500082E0089583E0089581E008950E949C1C11
:103860000E94A41CE0EEF0E0808181608083E8ED9E
:10387000F0E080818F77808319BCA7EDB0E08C9158
:103880008E7F8C9380818F7E80831092800208953A
:103890000F931F93CF93DF930E949C1C0E94A41C44
:1038A000C8EDD0E088818F7788838881806888839D
:1038B00088818F7D888319BC1092810210927D02CD
:1038C00010927F0210927E0200EE10E0F8018081DB
:1038D0008B7F808388818160888342E060E080E024
:1038E0000E94AA1BE1EEF0E080818E7F8083E2EEF1
:1038F000F0E0808181608083808188608083F8012E
:1039000080818E7F8083888180618883DF91CF91E1
:103910001F910F910895E8EDF0E080818F7E808304
:10392000E7EDF0E080818160808384E082BF81E008
:10393000809380020C94481CE8EDF0E080818E7F3B
:1039400080831092E20008951092DA001092E10054
:1039500008951F920F920FB60F9211242F933F9349
:103960004F935F936F937F938F939F93AF93BF9387
:10397000EF93FF938091E10082FF0BC08091E20002
:1039800082FF07C08091E1008B7F8093E1000E945D
:10399000131F8091DA0080FF19C08091D80080FF4A
:1039A00015C08091DA008E7F8093DA008091D90073
:1039B00080FF96C080E189BD82E189BD09B400FE27
:1039C000FDCF81E0809381020E9410198091E10077
:1039D00080FF19C08091E20080FF15C08091E20055
:1039E0008E7F8093E2008091E20080618093E2000C
:1039F0008091D80080628093D80019BC85E08093C4
:103A000081020E9422198091E10084FF2BC08091E5
:103A1000E20084FF27C080E189BD82E189BD89B5CC
:103A2000982F917080FFFBCF8091D8008F7D80937D
:103A3000D8008091E1008F7E8093E1008091E200C8
:103A40008F7E8093E2008091E20081608093E200AB
:103A500080917D02882309F449C084E0809381022B
:103A60000E9423198091E10083FF29C08091E20028
:103A700083FF25C08091E100877F8093E10082E091
:103A80008093810210927D028091E1008E7F80936D
:103A9000E1008091E2008E7F8093E2008091E2005D
:103AA00080618093E20042E060E080E00E94AA1B17
:103AB0008091F00088608093F0000E942119FF91AE
:103AC000EF91BF91AF919F918F917F916F915F9196
:103AD0004F913F912F910F900FBE0F901F9018950F
:103AE00019BC109281020E941E1970CF8091E300D0
:103AF00087FD93E090938102B3CF1F920F920FB690
:103B00000F9211242F933F934F935F936F937F9363
:103B10008F939F93AF93BF93CF93DF93EF93FF93D5
:103B2000D091E900DF708091EC00C82FC17080FD5A
:103B3000C0E81092E9008091F000877F8093F00048
:103B400078940E94C11D1092E9008091F000886075
:103B50008093F000CD2BCF70C093E900FF91EF91DF
:103B6000DF91CF91BF91AF919F918F917F916F9195
:103B70005F914F913F912F910F900FBE0F901F902B
:103B800018951F93CF93DF93CDB7DEB7AA970FB6E3
:103B9000F894DEBF0FBECDBF82E892E02091F10025
:103BA000FC012193CF01F2E08A389F07B9F70E9408
:103BB0002E198091E80083FF1EC1809182029091AE
:103BC00083029A3008F017C1E92FF0E0E950F04E77
:103BD0000C94751F803899F0823809F00CC18091DF
:103BE00086028F70873008F006C18093E9008091CB
:103BF000EB0085FB882780F91092E90006C08091D0
:103C00007E0290917F02911182609091E800977FEF
:103C10009093E8008093F1001092F1008091E80009
:103C20008E77E5C0882309F4D3C0823009F0E3C061
:103C3000809184028111D6C0809186028F702FEF0F
:103C4000280F263008F0D7C08093E9002091EB00C0
:103C500020FFC8C0933031F48091EB0080628093E4
:103C6000EB00C0C09091EB0090619093EB0021E0DD
:103C700030E001C0220F8A95EAF72093EA00109203
:103C8000EA008091EB008860EACF8111B4C0109106
:103C900084021F778091E3008078812B8093E3007A
:103CA0008091E800877F8093E8000E94DE1B80916E
:103CB000E80080FFFCCF8091E30080688093E30000
:103CC00082E0111183E08093810295C08058823098
:103CD00008F091C080918402909185028C3D23E090
:103CE0009207A1F583E08A838AE289834FB7F8942B
:103CF000DE01139620E03EE051E2E32FF0E0509326
:103D00005700E49120FF03C0E295EF703F5FEF7032
:103D10008E2F90E0EA30C0F0C7968D939D932F5F71
:103D2000243159F74FBF8091E800877F8093E800E6
:103D30006AE270E0CE0101960E94ED1A8091E800DF
:103D40008B778093E80057C0C096E7CF60918602DA
:103D500070918702AE014F5F5F4F0E942E1ABC0127
:103D6000892B09F448C09091E800977F9093E80070
:103D700089819A810E944B1BE1CF8038E1F58091C7
:103D8000E800877F8093E80080917D028093F100B6
:103D900045CF811130C090918402923060F58091BE
:103DA000E800877F8093E80090937D020E94DE1BED
:103DB00080917D02882311F084E005C08091E300AA
:103DC00087FDFACF81E0809381020E94241913C0FD
:103DD00080918402813079F481E0933009F080E0B1
:103DE00080937F021092E9008091E800877F8093A2
:103DF000E8000E94DE1B8091E80083FF0AC08091EA
:103E0000E800877F8093E8008091EB0080628093D8
:103E1000EB00AA960FB6F894DEBF0FBECDBFDF91C0
:103E2000CF911F9108950895CF93809181028823A7
:103E3000A1F0C091E900CF709091EC00892F8170C2
:103E400090FD80E8C82B1092E9008091E80083FD86
:103E50000E94C11DCF70C093E900CF910895DB018E
:103E60008F939F930E948A1FBF91AF91A29F800D55
:103E7000911DA39F900DB29F900D11240895AA1B30
:103E8000BB1B51E107C0AA1FBB1FA617B70710F045
:103E9000A61BB70B881F991F5A95A9F78095909577
:103EA000BC01CD010895A1E21A2EAA1BBB1BFD0186
:103EB0000DC0AA1FBB1FEE1FFF1FA217B307E40709
:103EC000F50720F0A21BB30BE40BF50B661F771F61
:103ED000881F991F1A9469F7609570958095909541
:103EE0009B01AC01BD01CF010895EE0FFF1F0590AE
:103EF000F491E02D0994A29FB001B39FC001A39F4C
:103F0000700D811D1124911DB29F700D811D112412
:103F1000911D08950E947B1FA59F900DB49F900D49
:103F2000A49F800D911D11240895F999FECF92BD93
:103F300081BDF89A992780B50895A8E1B0E042E0E4
:103F400050E00C94C91F262FF999FECF92BD81BD78
:103F5000F89A019700B4021639F01FBA20BD0FB6C7
:103F6000F894FA9AF99A0FBE08950396272F0E94A3
:103F7000A41F0E94A31F252F0E94A41F242F0C946E
:103F8000A41F0196272F0E94A41F0C94A31FDC01DD
:103F9000CB01FC01F999FECF06C0F2BDE1BDF89A54
:103FA000319600B40D9241505040B8F70895F894FE
:103FB000FFCF9C0D9C0DF40DF40D460EC90DC90DDF
:103FC000C90D620EEE0EFD0EFD0E590FC90DC90D85
:103FD000620FD30FD30FDC0FDC0FDE0FDC0FDC0F13
:103FE000DC0FD30FD30FE30FDC0FDC0FE30FEA1D61
:103FF000121EFB1E121EFB1E451E661EFB1EBD1E54
:02400000C91ED7
:104002001B029118D0189418CC18C81801E200E9C4
:1040120000EA00B500B600B700CD008301CC008AEB
:104022000192019401210223022402250226022781
:10403200022A02B300B4006F007000818283F0F1A3
:10404200C66766379431303534979633F49091923F
:104052009395E200E900EA00B500B600B700CD0092
:104062008301CC008A0192019401210223022402DD
:104072002502260227022A02B300B4006F00700054
:0440820081828300B4
:00000001FF
